:10000300120166E513640A4512700DF512F5137FAC
:10001300941201B98E108F110513E51370020512A6
:10002300E4F508F509F50AF50BAE10AF117C277D51
:100033001012008D7E037FE8CFCDCFCECCCE120041
:100043008D8F0CAE10AF117C037DE812008D7E0006
:100053007F64CFCDCFCECCCE12008D8F0DAE10AF3F
:10006300117C007D6412008D7E007F0ACFCDCFCE40
:10007300CCCE12008D8F0EAE10AF117C007D0A1214
:0A008300008D8D0F120148020006E7
:100148007F801201D2E4F51474082514F8E62430EF
:0D015800FF1201DE0514E514C3940840EB0E
:010165002277
:1001A000D3EF9400EE9400400F7D267C82DCFEDDD0
:0801B000FAEF1F70EB1E80E85E
:0101B8002224
:0B01F600C290D291D292D290C291220E
:10018400C290E4FEEFC4131313540124FF9292EFC0
:0B01940025E0FFC290D2900EBE08E9EB
:01019F00223D
:10012400E4FFFEC290FDFCEF25E0FFEE33FED2902B
:10013400C290A293E43342070DBD00010CED640CA0
:030144004C70E418
:010147002295
:1001B900C290C2911201847F06DFFED2900000C274
:0801C900900000120124D29104
:0101D100220B
:1000E200C2A58B807F017E0012010BD2A77F057E05
:1000F2000012010BC2A7EBC454F0F5807F017E0011
:0901020012010BD2A77F057E005B
:10010B00D3EF9400EE9400400F7DC77C01DCFEDD45
:08011B00FAEF1F70EB1E80E8F3
:0101230022B9
:0C01D200AB07C2A7C2A61200E2C2A7221F
:0C01DE00AB07C2A7D2A61200E2C2A72203
:100166007F321201D27F281201D27F0C1201D27F78
:0E017600061201D27F011201D27F800201D257
:030000000201EA10
:0C01EA00787FE4F6D8FD75811402000354
:10008D00BC000BBE0029EF8DF084FFADF022E4CC57
:10009D00F875F008EF2FFFEE33FEEC33FCEE9DEC20
:1000AD00984005FCEE9DFE0FD5F0E9E4CEFD22ED66
:1000BD00F8F5F0EE8420D21CFEADF075F008EF2FB0
:1000CD00FFED33FD4007985006D5F0F222C398FDA1
:0500DD000FD5F0EA223E
:00000001FF
