:1000980082FA46523A1303DA02120A238762070FDA
:0100A8007FD8
:10000300750901750A02750B03750C04750D0575E9
:100013000E06750F0775100FC291D290E4FF120000
:10002300841200647F011200841200647F021200B4
:10003300841200647F031200841200647F041200A0
:10004300841200647F051200841200647F0612008C
:10005300841200647F071200841200641200B580CA
:01006300BBE1
:1000840074092FF8E62498F582E43400F583E493A8
:03009400F508FF6D
:010097002246
:10006400E4FEEFA806088002C333D8FC30E704D2CC
:0F007400928002C292D2910000C2910EBE08E3A8
:01008300225A
:0B00B500C2900000D2900000C2902218
:030000000200A952
:0C00A900787FE4F6D8FD7581100200039A
:00000001FF
