:1001B30082FA46523A1303DA02120A238762070FBE
:0101C3007FBC
:03000300010900F0
:10018B00758901758CD8758AF0D2AFD2A9D28C1231
:04019B00016E80FE73
:03000B0002009A56
:10009A00C0E0C0F0C083C082C0D075D000C000C02C
:0D00AA0001C002C003C004C005C006C007AD
:1000B700758C63758AC00508E508B41429750800AE
:1000C700E4FFFEE50975F01184740B2FF8A6F00F15
:1000D700BF00010EEF64084E70E90509E509D394E6
:0900E70064400375090012010BCD
:1000F000D007D006D005D004D003D002D001D00064
:0B010000D0D0D082D083D0F0D0E0320D
:10016E00750B01750C02750D03750E04750F0D756B
:0D017E00100C75110E75120FC291D2902257
:10010B00E4FF12019F12014E7F0112019F12014E5B
:10011B007F0212019F12014E7F0312019F12014EAB
:10012B007F0412019F12014E7F0512019F12014E97
:10013B007F0612019F12014E7F0712019F12014E83
:03014B000201C4EA
:10019F00740B2FF8E624B3F582E43401F583E4936E
:0301AF00F50AFF4F
:0101B200222A
:10014E00E4FEEFA806088002C333D8FC30E704D2E1
:0F015E00928002C292D2910000C2910EBE08E3BD
:01016D00226F
:0B01C400C2900000D2900000C2902208
:0300000002000EED
:0C000E00787FE4F6D8FD758112020055E1
:10001A0002018BE493A3F8E493A34003F68001F270
:10002A0008DFF48029E493A3F85407240CC8C333E7
:10003A00C4540F4420C8834004F456800146F6DFB6
:10004A00E4800B0102040810204080900003E47E43
:10005A00019360BCA3FF543F30E509541FFEE493AB
:10006A00A360010ECF54C025E060A840B8E493A372
:10007A00FAE493A3F8E493A3C8C582C8CAC583CA9D
:10008A00F0A3C8C582C8CAC583CADFE9DEE780BE55
:0100060000F9
:00000001FF
